{
    "_format": "hh-sol-artifact-1",
    "contractName": "Kryptage",
    "sourceName": "contracts/Kryptage.sol",
    "abi": [
        {
            "anonymous": false,
            "inputs": [
                {
                    "indexed": false,
                    "internalType": "uint256",
                    "name": "Id",
                    "type": "uint256"
                },
                {
                    "indexed": false,
                    "internalType": "string",
                    "name": "Hash",
                    "type": "string"
                },
                {
                    "indexed": false,
                    "internalType": "uint256",
                    "name": "Size",
                    "type": "uint256"
                },
                {
                    "indexed": false,
                    "internalType": "string",
                    "name": "Type",
                    "type": "string"
                },
                {
                    "indexed": false,
                    "internalType": "string",
                    "name": "Name",
                    "type": "string"
                },
                {
                    "indexed": false,
                    "internalType": "string",
                    "name": "Description",
                    "type": "string"
                },
                {
                    "indexed": false,
                    "internalType": "uint256",
                    "name": "Timestamp",
                    "type": "uint256"
                },
                {
                    "indexed": false,
                    "internalType": "address",
                    "name": "owner",
                    "type": "address"
                }
            ],
            "name": "afterUploading",
            "type": "event"
        },
        {
            "inputs": [],
            "name": "Name",
            "outputs": [
                {
                    "internalType": "string",
                    "name": "",
                    "type": "string"
                }
            ],
            "stateMutability": "view",
            "type": "function"
        },
        {
            "inputs": [
                {
                    "internalType": "uint256",
                    "name": "",
                    "type": "uint256"
                }
            ],
            "name": "_file",
            "outputs": [
                {
                    "internalType": "uint256",
                    "name": "Id",
                    "type": "uint256"
                },
                {
                    "internalType": "string",
                    "name": "Hash",
                    "type": "string"
                },
                {
                    "internalType": "uint256",
                    "name": "Size",
                    "type": "uint256"
                },
                {
                    "internalType": "string",
                    "name": "Type",
                    "type": "string"
                },
                {
                    "internalType": "string",
                    "name": "Name",
                    "type": "string"
                },
                {
                    "internalType": "string",
                    "name": "Description",
                    "type": "string"
                },
                {
                    "internalType": "uint256",
                    "name": "Timestamp",
                    "type": "uint256"
                },
                {
                    "internalType": "address",
                    "name": "owner",
                    "type": "address"
                }
            ],
            "stateMutability": "view",
            "type": "function"
        },
        {
            "inputs": [],
            "name": "fileCount",
            "outputs": [
                {
                    "internalType": "uint256",
                    "name": "",
                    "type": "uint256"
                }
            ],
            "stateMutability": "view",
            "type": "function"
        },
        {
            "inputs": [
                {
                    "internalType": "string",
                    "name": "fileHash",
                    "type": "string"
                },
                {
                    "internalType": "uint256",
                    "name": "fileSize",
                    "type": "uint256"
                },
                {
                    "internalType": "string",
                    "name": "fileType",
                    "type": "string"
                },
                {
                    "internalType": "string",
                    "name": "fileName",
                    "type": "string"
                },
                {
                    "internalType": "string",
                    "name": "fileDescription",
                    "type": "string"
                }
            ],
            "name": "uploadFile",
            "outputs": [],
            "stateMutability": "nonpayable",
            "type": "function"
        }
    ],
    "bytecode": "0x60806040526040518060400160405280600881526020017f4b72797074616765000000000000000000000000000000000000000000000000815250600090816200004a9190620002de565b5060006001553480156200005d57600080fd5b50620003c5565b600081519050919050565b7f4e487b7100000000000000000000000000000000000000000000000000000000600052604160045260246000fd5b7f4e487b7100000000000000000000000000000000000000000000000000000000600052602260045260246000fd5b60006002820490506001821680620000e657607f821691505b602082108103620000fc57620000fb6200009e565b5b50919050565b60008190508160005260206000209050919050565b60006020601f8301049050919050565b600082821b905092915050565b600060088302620001667fffffffffffffffffffffffffffffffffffffffffffffffffffffffffffffffff8262000127565b62000172868362000127565b95508019841693508086168417925050509392505050565b6000819050919050565b6000819050919050565b6000620001bf620001b9620001b3846200018a565b62000194565b6200018a565b9050919050565b6000819050919050565b620001db836200019e565b620001f3620001ea82620001c6565b84845462000134565b825550505050565b600090565b6200020a620001fb565b62000217818484620001d0565b505050565b5b818110156200023f576200023360008262000200565b6001810190506200021d565b5050565b601f8211156200028e57620002588162000102565b620002638462000117565b8101602085101562000273578190505b6200028b620002828562000117565b8301826200021c565b50505b505050565b600082821c905092915050565b6000620002b36000198460080262000293565b1980831691505092915050565b6000620002ce8383620002a0565b9150826002028217905092915050565b620002e98262000064565b67ffffffffffffffff8111156200030557620003046200006f565b5b620003118254620000cd565b6200031e82828562000243565b600060209050601f83116001811462000356576000841562000341578287015190505b6200034d8582620002c0565b865550620003bd565b601f198416620003668662000102565b60005b82811015620003905784890151825560018201915060208501945060208101905062000369565b86831015620003b05784890151620003ac601f891682620002a0565b8355505b6001600288020188555050505b505050505050565b610dcd80620003d56000396000f3fe608060405234801561001057600080fd5b506004361061004c5760003560e01c8063439535191461005157806354576ca01461006f5780638052474d146100a6578063e82d9d33146100c4575b600080fd5b6100596100e0565b6040516100669190610621565b60405180910390f35b6100896004803603810190610084919061067c565b6100e6565b60405161009d98979695949392919061077a565b60405180910390f35b6100ae61036e565b6040516100bb9190610814565b60405180910390f35b6100de60048036038101906100d9919061096b565b6103fc565b005b60015481565b600260205280600052604060002060009150905080600001549080600101805461010f90610a85565b80601f016020809104026020016040519081016040528092919081815260200182805461013b90610a85565b80156101885780601f1061015d57610100808354040283529160200191610188565b820191906000526020600020905b81548152906001019060200180831161016b57829003601f168201915b5050505050908060020154908060030180546101a390610a85565b80601f01602080910402602001604051908101604052809291908181526020018280546101cf90610a85565b801561021c5780601f106101f15761010080835404028352916020019161021c565b820191906000526020600020905b8154815290600101906020018083116101ff57829003601f168201915b50505050509080600401805461023190610a85565b80601f016020809104026020016040519081016040528092919081815260200182805461025d90610a85565b80156102aa5780601f1061027f576101008083540402835291602001916102aa565b820191906000526020600020905b81548152906001019060200180831161028d57829003601f168201915b5050505050908060050180546102bf90610a85565b80601f01602080910402602001604051908101604052809291908181526020018280546102eb90610a85565b80156103385780601f1061030d57610100808354040283529160200191610338565b820191906000526020600020905b81548152906001019060200180831161031b57829003601f168201915b5050505050908060060154908060070160009054906101000a900473ffffffffffffffffffffffffffffffffffffffff16905088565b6000805461037b90610a85565b80601f01602080910402602001604051908101604052809291908181526020018280546103a790610a85565b80156103f45780601f106103c9576101008083540402835291602001916103f4565b820191906000526020600020905b8154815290600101906020018083116103d757829003601f168201915b505050505081565b600085511161040a57600080fd5b600083511161041857600080fd5b600081511161042657600080fd5b600082511161043457600080fd5b600073ffffffffffffffffffffffffffffffffffffffff163373ffffffffffffffffffffffffffffffffffffffff160361046d57600080fd5b6000841161047a57600080fd5b600180600082825461048c9190610ae5565b9250508190555060405180610100016040528060015481526020018681526020018581526020018481526020018381526020018281526020014281526020013373ffffffffffffffffffffffffffffffffffffffff168152506002600060015481526020019081526020016000206000820151816000015560208201518160010190816105199190610cc5565b506040820151816002015560608201518160030190816105399190610cc5565b50608082015181600401908161054f9190610cc5565b5060a08201518160050190816105659190610cc5565b5060c0820151816006015560e08201518160070160006101000a81548173ffffffffffffffffffffffffffffffffffffffff021916908373ffffffffffffffffffffffffffffffffffffffff1602179055509050507f79bda192b7eda39e7433b6efc421c6fb493c34e82db084f3ea25422cf29aa4ed600154868686868642336040516105f998979695949392919061077a565b60405180910390a15050505050565b6000819050919050565b61061b81610608565b82525050565b60006020820190506106366000830184610612565b92915050565b6000604051905090565b600080fd5b600080fd5b61065981610608565b811461066457600080fd5b50565b60008135905061067681610650565b92915050565b60006020828403121561069257610691610646565b5b60006106a084828501610667565b91505092915050565b600081519050919050565b600082825260208201905092915050565b60005b838110156106e35780820151818401526020810190506106c8565b60008484015250505050565b6000601f19601f8301169050919050565b600061070b826106a9565b61071581856106b4565b93506107258185602086016106c5565b61072e816106ef565b840191505092915050565b600073ffffffffffffffffffffffffffffffffffffffff82169050919050565b600061076482610739565b9050919050565b61077481610759565b82525050565b600061010082019050610790600083018b610612565b81810360208301526107a2818a610700565b90506107b16040830189610612565b81810360608301526107c38188610700565b905081810360808301526107d78187610700565b905081810360a08301526107eb8186610700565b90506107fa60c0830185610612565b61080760e083018461076b565b9998505050505050505050565b6000602082019050818103600083015261082e8184610700565b905092915050565b600080fd5b600080fd5b7f4e487b7100000000000000000000000000000000000000000000000000000000600052604160045260246000fd5b610878826106ef565b810181811067ffffffffffffffff8211171561089757610896610840565b5b80604052505050565b60006108aa61063c565b90506108b6828261086f565b919050565b600067ffffffffffffffff8211156108d6576108d5610840565b5b6108df826106ef565b9050602081019050919050565b82818337600083830152505050565b600061090e610909846108bb565b6108a0565b90508281526020810184848401111561092a5761092961083b565b5b6109358482856108ec565b509392505050565b600082601f83011261095257610951610836565b5b81356109628482602086016108fb565b91505092915050565b600080600080600060a0868803121561098757610986610646565b5b600086013567ffffffffffffffff8111156109a5576109a461064b565b5b6109b18882890161093d565b95505060206109c288828901610667565b945050604086013567ffffffffffffffff8111156109e3576109e261064b565b5b6109ef8882890161093d565b935050606086013567ffffffffffffffff811115610a1057610a0f61064b565b5b610a1c8882890161093d565b925050608086013567ffffffffffffffff811115610a3d57610a3c61064b565b5b610a498882890161093d565b9150509295509295909350565b7f4e487b7100000000000000000000000000000000000000000000000000000000600052602260045260246000fd5b60006002820490506001821680610a9d57607f821691505b602082108103610ab057610aaf610a56565b5b50919050565b7f4e487b7100000000000000000000000000000000000000000000000000000000600052601160045260246000fd5b6000610af082610608565b9150610afb83610608565b9250828201905080821115610b1357610b12610ab6565b5b92915050565b60008190508160005260206000209050919050565b60006020601f8301049050919050565b600082821b905092915050565b600060088302610b7b7fffffffffffffffffffffffffffffffffffffffffffffffffffffffffffffffff82610b3e565b610b858683610b3e565b95508019841693508086168417925050509392505050565b6000819050919050565b6000610bc2610bbd610bb884610608565b610b9d565b610608565b9050919050565b6000819050919050565b610bdc83610ba7565b610bf0610be882610bc9565b848454610b4b565b825550505050565b600090565b610c05610bf8565b610c10818484610bd3565b505050565b5b81811015610c3457610c29600082610bfd565b600181019050610c16565b5050565b601f821115610c7957610c4a81610b19565b610c5384610b2e565b81016020851015610c62578190505b610c76610c6e85610b2e565b830182610c15565b50505b505050565b600082821c905092915050565b6000610c9c60001984600802610c7e565b1980831691505092915050565b6000610cb58383610c8b565b9150826002028217905092915050565b610cce826106a9565b67ffffffffffffffff811115610ce757610ce6610840565b5b610cf18254610a85565b610cfc828285610c38565b600060209050601f831160018114610d2f5760008415610d1d578287015190505b610d278582610ca9565b865550610d8f565b601f198416610d3d86610b19565b60005b82811015610d6557848901518255600182019150602085019450602081019050610d40565b86831015610d825784890151610d7e601f891682610c8b565b8355505b6001600288020188555050505b50505050505056fea2646970667358221220e0acdd231a8b0468f5a8f44063a79e3b0e1504367157f3fc09eb8afc5193840664736f6c63430008110033",
    "linkReferences": {},
    "deployedLinkReferences": {}
}